{
  "contractName": "CandleAuction",
  "abi": [
    {
      "inputs": [
        {
          "internalType": "uint256",
          "name": "_auctionDuration",
          "type": "uint256"
        },
        {
          "internalType": "uint256",
          "name": "_candleDuration",
          "type": "uint256"
        },
        {
          "internalType": "string",
          "name": "_productName",
          "type": "string"
        }
      ],
      "stateMutability": "nonpayable",
      "type": "constructor"
    },
    {
      "anonymous": false,
      "inputs": [
        {
          "indexed": false,
          "internalType": "address",
          "name": "winner",
          "type": "address"
        },
        {
          "indexed": false,
          "internalType": "uint256",
          "name": "highestBid",
          "type": "uint256"
        }
      ],
      "name": "AuctionEnded",
      "type": "event"
    },
    {
      "anonymous": false,
      "inputs": [
        {
          "indexed": false,
          "internalType": "address",
          "name": "bidder",
          "type": "address"
        },
        {
          "indexed": false,
          "internalType": "uint256",
          "name": "amount",
          "type": "uint256"
        }
      ],
      "name": "NewHighestBid",
      "type": "event"
    },
    {
      "inputs": [],
      "name": "auctionDuration",
      "outputs": [
        {
          "internalType": "uint256",
          "name": "",
          "type": "uint256"
        }
      ],
      "stateMutability": "view",
      "type": "function",
      "constant": true
    },
    {
      "inputs": [
        {
          "internalType": "uint256",
          "name": "",
          "type": "uint256"
        }
      ],
      "name": "bidders",
      "outputs": [
        {
          "internalType": "address",
          "name": "addr",
          "type": "address"
        },
        {
          "internalType": "uint256",
          "name": "maxBid",
          "type": "uint256"
        }
      ],
      "stateMutability": "view",
      "type": "function",
      "constant": true
    },
    {
      "inputs": [
        {
          "internalType": "address",
          "name": "",
          "type": "address"
        }
      ],
      "name": "bids",
      "outputs": [
        {
          "internalType": "uint256",
          "name": "",
          "type": "uint256"
        }
      ],
      "stateMutability": "view",
      "type": "function",
      "constant": true
    },
    {
      "inputs": [],
      "name": "candleDuration",
      "outputs": [
        {
          "internalType": "uint256",
          "name": "",
          "type": "uint256"
        }
      ],
      "stateMutability": "view",
      "type": "function",
      "constant": true
    },
    {
      "inputs": [],
      "name": "candleEndTime",
      "outputs": [
        {
          "internalType": "uint256",
          "name": "",
          "type": "uint256"
        }
      ],
      "stateMutability": "view",
      "type": "function",
      "constant": true
    },
    {
      "inputs": [],
      "name": "endTime",
      "outputs": [
        {
          "internalType": "uint256",
          "name": "",
          "type": "uint256"
        }
      ],
      "stateMutability": "view",
      "type": "function",
      "constant": true
    },
    {
      "inputs": [],
      "name": "ended",
      "outputs": [
        {
          "internalType": "bool",
          "name": "",
          "type": "bool"
        }
      ],
      "stateMutability": "view",
      "type": "function",
      "constant": true
    },
    {
      "inputs": [],
      "name": "highestBid",
      "outputs": [
        {
          "internalType": "uint256",
          "name": "",
          "type": "uint256"
        }
      ],
      "stateMutability": "view",
      "type": "function",
      "constant": true
    },
    {
      "inputs": [],
      "name": "highestBidder",
      "outputs": [
        {
          "internalType": "address",
          "name": "",
          "type": "address"
        }
      ],
      "stateMutability": "view",
      "type": "function",
      "constant": true
    },
    {
      "inputs": [],
      "name": "owner",
      "outputs": [
        {
          "internalType": "address",
          "name": "",
          "type": "address"
        }
      ],
      "stateMutability": "view",
      "type": "function",
      "constant": true
    },
    {
      "inputs": [],
      "name": "productName",
      "outputs": [
        {
          "internalType": "string",
          "name": "",
          "type": "string"
        }
      ],
      "stateMutability": "view",
      "type": "function",
      "constant": true
    },
    {
      "inputs": [],
      "name": "startTime",
      "outputs": [
        {
          "internalType": "uint256",
          "name": "",
          "type": "uint256"
        }
      ],
      "stateMutability": "view",
      "type": "function",
      "constant": true
    },
    {
      "inputs": [
        {
          "internalType": "address",
          "name": "_bidder",
          "type": "address"
        },
        {
          "internalType": "uint256",
          "name": "_maxBid",
          "type": "uint256"
        }
      ],
      "name": "registerBid",
      "outputs": [],
      "stateMutability": "nonpayable",
      "type": "function"
    },
    {
      "inputs": [],
      "name": "startAuction",
      "outputs": [],
      "stateMutability": "nonpayable",
      "type": "function"
    },
    {
      "inputs": [],
      "name": "withdraw",
      "outputs": [],
      "stateMutability": "nonpayable",
      "type": "function"
    },
    {
      "inputs": [],
      "name": "endAuction",
      "outputs": [],
      "stateMutability": "nonpayable",
      "type": "function"
    },
    {
      "inputs": [
        {
          "internalType": "uint256",
          "name": "_auctionDuration",
          "type": "uint256"
        },
        {
          "internalType": "uint256",
          "name": "_candleDuration",
          "type": "uint256"
        },
        {
          "internalType": "string",
          "name": "_productName",
          "type": "string"
        }
      ],
      "name": "restartAuction",
      "outputs": [],
      "stateMutability": "nonpayable",
      "type": "function"
    },
    {
      "inputs": [
        {
          "internalType": "string",
          "name": "_productName",
          "type": "string"
        }
      ],
      "name": "setProductName",
      "outputs": [],
      "stateMutability": "nonpayable",
      "type": "function"
    },
    {
      "inputs": [],
      "name": "getHighestBid",
      "outputs": [
        {
          "internalType": "uint256",
          "name": "",
          "type": "uint256"
        }
      ],
      "stateMutability": "view",
      "type": "function",
      "constant": true
    },
    {
      "inputs": [],
      "name": "getHighestBidder",
      "outputs": [
        {
          "internalType": "address",
          "name": "",
          "type": "address"
        }
      ],
      "stateMutability": "view",
      "type": "function",
      "constant": true
    },
    {
      "inputs": [],
      "name": "getWinner",
      "outputs": [
        {
          "internalType": "address",
          "name": "",
          "type": "address"
        }
      ],
      "stateMutability": "view",
      "type": "function",
      "constant": true
    },
    {
      "inputs": [],
      "name": "getAuctionStatus",
      "outputs": [
        {
          "internalType": "bool",
          "name": "",
          "type": "bool"
        }
      ],
      "stateMutability": "view",
      "type": "function",
      "constant": true
    },
    {
      "inputs": [],
      "name": "getAuctionDetails",
      "outputs": [
        {
          "internalType": "string",
          "name": "",
          "type": "string"
        },
        {
          "internalType": "uint256",
          "name": "",
          "type": "uint256"
        },
        {
          "internalType": "uint256",
          "name": "",
          "type": "uint256"
        },
        {
          "internalType": "uint256",
          "name": "",
          "type": "uint256"
        },
        {
          "internalType": "uint256",
          "name": "",
          "type": "uint256"
        },
        {
          "internalType": "bool",
          "name": "",
          "type": "bool"
        }
      ],
      "stateMutability": "view",
      "type": "function",
      "constant": true
    }
  ],
  "bytecode": "0x60806040523480156200001157600080fd5b5060405162002639380380620026398339818101604052810190620000379190620002a2565b33600260006101000a81548173ffffffffffffffffffffffffffffffffffffffff021916908373ffffffffffffffffffffffffffffffffffffffff160217905550826008819055508160098190555080600790816200009791906200055e565b504260038190555082600354620000af919062000674565b60048190555081600454620000c59190620006af565b600581905550505050620006ea565b6000604051905090565b600080fd5b600080fd5b6000819050919050565b620000fd81620000e8565b81146200010957600080fd5b50565b6000815190506200011d81620000f2565b92915050565b600080fd5b600080fd5b6000601f19601f8301169050919050565b7f4e487b7100000000000000000000000000000000000000000000000000000000600052604160045260246000fd5b62000178826200012d565b810181811067ffffffffffffffff821117156200019a57620001996200013e565b5b80604052505050565b6000620001af620000d4565b9050620001bd82826200016d565b919050565b600067ffffffffffffffff821115620001e057620001df6200013e565b5b620001eb826200012d565b9050602081019050919050565b60005b8381101562000218578082015181840152602081019050620001fb565b60008484015250505050565b60006200023b6200023584620001c2565b620001a3565b9050828152602081018484840111156200025a576200025962000128565b5b62000267848285620001f8565b509392505050565b600082601f83011262000287576200028662000123565b5b81516200029984826020860162000224565b91505092915050565b600080600060608486031215620002be57620002bd620000de565b5b6000620002ce868287016200010c565b9350506020620002e1868287016200010c565b925050604084015167ffffffffffffffff811115620003055762000304620000e3565b5b62000313868287016200026f565b9150509250925092565b600081519050919050565b7f4e487b7100000000000000000000000000000000000000000000000000000000600052602260045260246000fd5b600060028204905060018216806200037057607f821691505b60208210810362000386576200038562000328565b5b50919050565b60008190508160005260206000209050919050565b60006020601f8301049050919050565b600082821b905092915050565b600060088302620003f07fffffffffffffffffffffffffffffffffffffffffffffffffffffffffffffffff82620003b1565b620003fc8683620003b1565b95508019841693508086168417925050509392505050565b6000819050919050565b60006200043f620004396200043384620000e8565b62000414565b620000e8565b9050919050565b6000819050919050565b6200045b836200041e565b620004736200046a8262000446565b848454620003be565b825550505050565b600090565b6200048a6200047b565b6200049781848462000450565b505050565b5b81811015620004bf57620004b360008262000480565b6001810190506200049d565b5050565b601f8211156200050e57620004d8816200038c565b620004e384620003a1565b81016020851015620004f3578190505b6200050b6200050285620003a1565b8301826200049c565b50505b505050565b600082821c905092915050565b6000620005336000198460080262000513565b1980831691505092915050565b60006200054e838362000520565b9150826002028217905092915050565b62000569826200031d565b67ffffffffffffffff8111156200058557620005846200013e565b5b62000591825462000357565b6200059e828285620004c3565b600060209050601f831160018114620005d65760008415620005c1578287015190505b620005cd858262000540565b8655506200063d565b601f198416620005e6866200038c565b60005b828110156200061057848901518255600182019150602085019450602081019050620005e9565b868310156200063057848901516200062c601f89168262000520565b8355505b6001600288020188555050505b505050505050565b7f4e487b7100000000000000000000000000000000000000000000000000000000600052601160045260246000fd5b60006200068182620000e8565b91506200068e83620000e8565b9250828201905080821115620006a957620006a862000645565b5b92915050565b6000620006bc82620000e8565b9150620006c983620000e8565b9250828203905081811115620006e457620006e362000645565b5b92915050565b611f3f80620006fa6000396000f3fe608060405234801561001057600080fd5b506004361061014c5760003560e01c806362ea82db116100c357806391f901571161007c57806391f901571461033a578063be30f45e14610358578063cff29dfd14610376578063d57bde79146103a7578063ef458fea146103c5578063fe67a54b146103e15761014c565b806362ea82db146102885780636b64c769146102b857806378e97925146102c25780637f7650eb146102e05780638da5cb5b146102fe5780638e7ea5b21461031c5761014c565b8063397d0c4411610115578063397d0c44146101e75780633a6dcea2146102035780633ccfd60b146102265780634090fb21146102305780634979440a1461024c5780634f483d271461026a5761014c565b80623495a4146101515780630cbf54c81461016f57806312fa6feb1461018d5780632e93be30146101ab5780633197cbb6146101c9575b600080fd5b6101596103eb565b6040516101669190611275565b60405180910390f35b610177610414565b60405161018491906112a9565b60405180910390f35b61019561041a565b6040516101a291906112df565b60405180910390f35b6101b361042d565b6040516101c091906112df565b60405180910390f35b6101d1610452565b6040516101de91906112a9565b60405180910390f35b61020160048036038101906101fc9190611366565b610458565b005b61020b6105f2565b60405161021d96959493929190611436565b60405180910390f35b61022e6106ba565b005b61024a600480360381019061024591906115d3565b6107d0565b005b610254610973565b60405161026191906112a9565b60405180910390f35b61027261097d565b60405161027f91906112a9565b60405180910390f35b6102a2600480360381019061029d9190611642565b610983565b6040516102af91906112a9565b60405180910390f35b6102c061099b565b005b6102ca610d7c565b6040516102d791906112a9565b60405180910390f35b6102e8610d82565b6040516102f5919061166f565b60405180910390f35b610306610e10565b6040516103139190611275565b60405180910390f35b610324610e36565b6040516103319190611275565b60405180910390f35b610342610ead565b60405161034f9190611275565b60405180910390f35b610360610ed1565b60405161036d91906112a9565b60405180910390f35b610390600480360381019061038b9190611691565b610ed7565b60405161039e9291906116be565b60405180910390f35b6103af610f2b565b6040516103bc91906112a9565b60405180910390f35b6103df60048036038101906103da91906116e7565b610f31565b005b6103e9610fd4565b005b60008060009054906101000a900473ffffffffffffffffffffffffffffffffffffffff16905090565b60085481565b600660009054906101000a900460ff1681565b60006004544210801561044d5750600660009054906101000a900460ff16155b905090565b60045481565b600260009054906101000a900473ffffffffffffffffffffffffffffffffffffffff1673ffffffffffffffffffffffffffffffffffffffff163373ffffffffffffffffffffffffffffffffffffffff16146104e8576040517f08c379a00000000000000000000000000000000000000000000000000000000081526004016104df906117a2565b60405180910390fd5b600454421080156105065750600660009054906101000a900460ff16155b610545576040517f08c379a000000000000000000000000000000000000000000000000000000000815260040161053c9061180e565b60405180910390fd5b600a60405180604001604052808473ffffffffffffffffffffffffffffffffffffffff16815260200183815250908060018154018082558091505060019003906000526020600020906002020160009091909190915060008201518160000160006101000a81548173ffffffffffffffffffffffffffffffffffffffff021916908373ffffffffffffffffffffffffffffffffffffffff1602179055506020820151816001015550505050565b606060008060008060006007600854600954600354600454600660009054906101000a900460ff168580546106269061185d565b80601f01602080910402602001604051908101604052809291908181526020018280546106529061185d565b801561069f5780601f106106745761010080835404028352916020019161069f565b820191906000526020600020905b81548152906001019060200180831161068257829003601f168201915b50505050509550955095509550955095509550909192939495565b6000600b60003373ffffffffffffffffffffffffffffffffffffffff1673ffffffffffffffffffffffffffffffffffffffff16815260200190815260200160002054905060008111610741576040517f08c379a0000000000000000000000000000000000000000000000000000000008152600401610738906118da565b60405180910390fd5b6000600b60003373ffffffffffffffffffffffffffffffffffffffff1673ffffffffffffffffffffffffffffffffffffffff168152602001908152602001600020819055503373ffffffffffffffffffffffffffffffffffffffff166108fc829081150290604051600060405180830381858888f193505050501580156107cc573d6000803e3d6000fd5b5050565b600260009054906101000a900473ffffffffffffffffffffffffffffffffffffffff1673ffffffffffffffffffffffffffffffffffffffff163373ffffffffffffffffffffffffffffffffffffffff1614610860576040517f08c379a0000000000000000000000000000000000000000000000000000000008152600401610857906117a2565b60405180910390fd5b600660009054906101000a900460ff166108af576040517f08c379a00000000000000000000000000000000000000000000000000000000081526004016108a69061196c565b60405180910390fd5b826008819055508160098190555080600790816108cc9190611b38565b5042600381905550826003546108e29190611c39565b600481905550816004546108f69190611c6d565b6005819055506000600660006101000a81548160ff021916908315150217905550600060018190555060008060006101000a81548173ffffffffffffffffffffffffffffffffffffffff021916908373ffffffffffffffffffffffffffffffffffffffff160217905550600a600061096e91906111ca565b505050565b6000600154905090565b60095481565b600b6020528060005260406000206000915090505481565b600260009054906101000a900473ffffffffffffffffffffffffffffffffffffffff1673ffffffffffffffffffffffffffffffffffffffff163373ffffffffffffffffffffffffffffffffffffffff1614610a2b576040517f08c379a0000000000000000000000000000000000000000000000000000000008152600401610a22906117a2565b60405180910390fd5b60045442108015610a495750600660009054906101000a900460ff16155b610a88576040517f08c379a0000000000000000000000000000000000000000000000000000000008152600401610a7f9061180e565b60405180910390fd5b600660009054906101000a900460ff1615610ad8576040517f08c379a0000000000000000000000000000000000000000000000000000000008152600401610acf90611ced565b60405180910390fd5b6000600a8054905011610b20576040517f08c379a0000000000000000000000000000000000000000000000000000000008152600401610b1790611d59565b60405180910390fd5b60005b600a80549050811015610d4b57600154600a8281548110610b4757610b46611d79565b5b9060005260206000209060020201600101541115610d3857600060015414610be357600154600b60008060009054906101000a900473ffffffffffffffffffffffffffffffffffffffff1673ffffffffffffffffffffffffffffffffffffffff1673ffffffffffffffffffffffffffffffffffffffff1681526020019081526020016000206000828254610bdb9190611c39565b925050819055505b600a8181548110610bf757610bf6611d79565b5b906000526020600020906002020160010154600181905550600a8181548110610c2357610c22611d79565b5b906000526020600020906002020160000160009054906101000a900473ffffffffffffffffffffffffffffffffffffffff166000806101000a81548173ffffffffffffffffffffffffffffffffffffffff021916908373ffffffffffffffffffffffffffffffffffffffff1602179055507fdeda60fb6e38f55d4ccab679f50f933d04b1dca8584775216dbdac46f251ca4a600a8281548110610cc957610cc8611d79565b5b906000526020600020906002020160000160009054906101000a900473ffffffffffffffffffffffffffffffffffffffff16600a8381548110610d0f57610d0e611d79565b5b906000526020600020906002020160010154604051610d2f9291906116be565b60405180910390a15b8080610d4390611da8565b915050610b23565b506005544210610d7a5760006002610d61611197565b610d6b9190611e1f565b03610d7957610d78610fd4565b5b5b565b60035481565b60078054610d8f9061185d565b80601f0160208091040260200160405190810160405280929190818152602001828054610dbb9061185d565b8015610e085780601f10610ddd57610100808354040283529160200191610e08565b820191906000526020600020905b815481529060010190602001808311610deb57829003601f168201915b505050505081565b600260009054906101000a900473ffffffffffffffffffffffffffffffffffffffff1681565b6000600660009054906101000a900460ff16610e87576040517f08c379a0000000000000000000000000000000000000000000000000000000008152600401610e7e90611e9c565b60405180910390fd5b60008054906101000a900473ffffffffffffffffffffffffffffffffffffffff16905090565b60008054906101000a900473ffffffffffffffffffffffffffffffffffffffff1681565b60055481565b600a8181548110610ee757600080fd5b90600052602060002090600202016000915090508060000160009054906101000a900473ffffffffffffffffffffffffffffffffffffffff16908060010154905082565b60015481565b600260009054906101000a900473ffffffffffffffffffffffffffffffffffffffff1673ffffffffffffffffffffffffffffffffffffffff163373ffffffffffffffffffffffffffffffffffffffff1614610fc1576040517f08c379a0000000000000000000000000000000000000000000000000000000008152600401610fb8906117a2565b60405180910390fd5b8060079081610fd09190611b38565b5050565b600260009054906101000a900473ffffffffffffffffffffffffffffffffffffffff1673ffffffffffffffffffffffffffffffffffffffff163373ffffffffffffffffffffffffffffffffffffffff1614611064576040517f08c379a000000000000000000000000000000000000000000000000000000000815260040161105b906117a2565b60405180910390fd5b600660009054906101000a900460ff16156110b4576040517f08c379a00000000000000000000000000000000000000000000000000000000081526004016110ab90611ced565b60405180910390fd5b6001600660006101000a81548160ff0219169083151502179055507fdaec4582d5d9595688c8c98545fdd1c696d41c6aeaeb636737e84ed2f5c00eda60008054906101000a900473ffffffffffffffffffffffffffffffffffffffff166001546040516111229291906116be565b60405180910390a1600260009054906101000a900473ffffffffffffffffffffffffffffffffffffffff1673ffffffffffffffffffffffffffffffffffffffff166108fc6001549081150290604051600060405180830381858888f19350505050158015611194573d6000803e3d6000fd5b50565b600044426040516020016111ac929190611edd565b6040516020818303038152906040528051906020012060001c905090565b50805460008255600202906000526020600020908101906111eb91906111ee565b50565b5b8082111561123057600080820160006101000a81549073ffffffffffffffffffffffffffffffffffffffff02191690556001820160009055506002016111ef565b5090565b600073ffffffffffffffffffffffffffffffffffffffff82169050919050565b600061125f82611234565b9050919050565b61126f81611254565b82525050565b600060208201905061128a6000830184611266565b92915050565b6000819050919050565b6112a381611290565b82525050565b60006020820190506112be600083018461129a565b92915050565b60008115159050919050565b6112d9816112c4565b82525050565b60006020820190506112f460008301846112d0565b92915050565b6000604051905090565b600080fd5b600080fd5b61131781611254565b811461132257600080fd5b50565b6000813590506113348161130e565b92915050565b61134381611290565b811461134e57600080fd5b50565b6000813590506113608161133a565b92915050565b6000806040838503121561137d5761137c611304565b5b600061138b85828601611325565b925050602061139c85828601611351565b9150509250929050565b600081519050919050565b600082825260208201905092915050565b60005b838110156113e05780820151818401526020810190506113c5565b60008484015250505050565b6000601f19601f8301169050919050565b6000611408826113a6565b61141281856113b1565b93506114228185602086016113c2565b61142b816113ec565b840191505092915050565b600060c082019050818103600083015261145081896113fd565b905061145f602083018861129a565b61146c604083018761129a565b611479606083018661129a565b611486608083018561129a565b61149360a08301846112d0565b979650505050505050565b600080fd5b600080fd5b7f4e487b7100000000000000000000000000000000000000000000000000000000600052604160045260246000fd5b6114e0826113ec565b810181811067ffffffffffffffff821117156114ff576114fe6114a8565b5b80604052505050565b60006115126112fa565b905061151e82826114d7565b919050565b600067ffffffffffffffff82111561153e5761153d6114a8565b5b611547826113ec565b9050602081019050919050565b82818337600083830152505050565b600061157661157184611523565b611508565b905082815260208101848484011115611592576115916114a3565b5b61159d848285611554565b509392505050565b600082601f8301126115ba576115b961149e565b5b81356115ca848260208601611563565b91505092915050565b6000806000606084860312156115ec576115eb611304565b5b60006115fa86828701611351565b935050602061160b86828701611351565b925050604084013567ffffffffffffffff81111561162c5761162b611309565b5b611638868287016115a5565b9150509250925092565b60006020828403121561165857611657611304565b5b600061166684828501611325565b91505092915050565b6000602082019050818103600083015261168981846113fd565b905092915050565b6000602082840312156116a7576116a6611304565b5b60006116b584828501611351565b91505092915050565b60006040820190506116d36000830185611266565b6116e0602083018461129a565b9392505050565b6000602082840312156116fd576116fc611304565b5b600082013567ffffffffffffffff81111561171b5761171a611309565b5b611727848285016115a5565b91505092915050565b7f4f6e6c7920746865206f776e65722063616e2063616c6c20746869732066756e60008201527f6374696f6e2e0000000000000000000000000000000000000000000000000000602082015250565b600061178c6026836113b1565b915061179782611730565b604082019050919050565b600060208201905081810360008301526117bb8161177f565b9050919050565b7f41756374696f6e206973206e6f74206163746976652e00000000000000000000600082015250565b60006117f86016836113b1565b9150611803826117c2565b602082019050919050565b60006020820190508181036000830152611827816117eb565b9050919050565b7f4e487b7100000000000000000000000000000000000000000000000000000000600052602260045260246000fd5b6000600282049050600182168061187557607f821691505b6020821081036118885761188761182e565b5b50919050565b7f4e6f2066756e647320746f2077697468647261772e0000000000000000000000600082015250565b60006118c46015836113b1565b91506118cf8261188e565b602082019050919050565b600060208201905081810360008301526118f3816118b7565b9050919050565b7f41756374696f6e206d75737420656e64206265666f726520726573746172746960008201527f6e672e0000000000000000000000000000000000000000000000000000000000602082015250565b60006119566023836113b1565b9150611961826118fa565b604082019050919050565b6000602082019050818103600083015261198581611949565b9050919050565b60008190508160005260206000209050919050565b60006020601f8301049050919050565b600082821b905092915050565b6000600883026119ee7fffffffffffffffffffffffffffffffffffffffffffffffffffffffffffffffff826119b1565b6119f886836119b1565b95508019841693508086168417925050509392505050565b6000819050919050565b6000611a35611a30611a2b84611290565b611a10565b611290565b9050919050565b6000819050919050565b611a4f83611a1a565b611a63611a5b82611a3c565b8484546119be565b825550505050565b600090565b611a78611a6b565b611a83818484611a46565b505050565b5b81811015611aa757611a9c600082611a70565b600181019050611a89565b5050565b601f821115611aec57611abd8161198c565b611ac6846119a1565b81016020851015611ad5578190505b611ae9611ae1856119a1565b830182611a88565b50505b505050565b600082821c905092915050565b6000611b0f60001984600802611af1565b1980831691505092915050565b6000611b288383611afe565b9150826002028217905092915050565b611b41826113a6565b67ffffffffffffffff811115611b5a57611b596114a8565b5b611b64825461185d565b611b6f828285611aab565b600060209050601f831160018114611ba25760008415611b90578287015190505b611b9a8582611b1c565b865550611c02565b601f198416611bb08661198c565b60005b82811015611bd857848901518255600182019150602085019450602081019050611bb3565b86831015611bf55784890151611bf1601f891682611afe565b8355505b6001600288020188555050505b505050505050565b7f4e487b7100000000000000000000000000000000000000000000000000000000600052601160045260246000fd5b6000611c4482611290565b9150611c4f83611290565b9250828201905080821115611c6757611c66611c0a565b5b92915050565b6000611c7882611290565b9150611c8383611290565b9250828203905081811115611c9b57611c9a611c0a565b5b92915050565b7f41756374696f6e2068617320616c726561647920656e6465642e000000000000600082015250565b6000611cd7601a836113b1565b9150611ce282611ca1565b602082019050919050565b60006020820190508181036000830152611d0681611cca565b9050919050565b7f4e6f206269646465727320746f2073746172742061756374696f6e2e00000000600082015250565b6000611d43601c836113b1565b9150611d4e82611d0d565b602082019050919050565b60006020820190508181036000830152611d7281611d36565b9050919050565b7f4e487b7100000000000000000000000000000000000000000000000000000000600052603260045260246000fd5b6000611db382611290565b91507fffffffffffffffffffffffffffffffffffffffffffffffffffffffffffffffff8203611de557611de4611c0a565b5b600182019050919050565b7f4e487b7100000000000000000000000000000000000000000000000000000000600052601260045260246000fd5b6000611e2a82611290565b9150611e3583611290565b925082611e4557611e44611df0565b5b828206905092915050565b7f41756374696f6e20686173206e6f7420656e646564207965742e000000000000600082015250565b6000611e86601a836113b1565b9150611e9182611e50565b602082019050919050565b60006020820190508181036000830152611eb581611e79565b9050919050565b6000819050919050565b611ed7611ed282611290565b611ebc565b82525050565b6000611ee98285611ec6565b602082019150611ef98284611ec6565b602082019150819050939250505056fea2646970667358221220f1c95c379d9cbf608721b0a7213750e1fa9f9b236ec77f1d9b1a39f43f8d24ec64736f6c63430008130033",
  "immutableReferences": {},
  "source": "// SPDX-License-Identifier: MIT\r\npragma solidity ^0.8.0;\r\n\r\ncontract CandleAuction {\r\n    address public highestBidder;\r\n    uint public highestBid;\r\n    address public owner;\r\n    uint public startTime;\r\n    uint public endTime;\r\n    uint public candleEndTime;\r\n    bool public ended;\r\n    string public productName;\r\n    uint public auctionDuration;\r\n    uint public candleDuration;\r\n\r\n    struct Bidder {\r\n        address addr;\r\n        uint maxBid;\r\n    }\r\n\r\n    Bidder[] public bidders;\r\n\r\n    mapping(address => uint) public bids;\r\n\r\n    event AuctionEnded(address winner, uint highestBid);\r\n    event NewHighestBid(address bidder, uint amount);\r\n\r\n    modifier onlyOwner() {\r\n        require(msg.sender == owner, \"Only the owner can call this function.\");\r\n        _;\r\n    }\r\n\r\n    modifier auctionActive() {\r\n        require(block.timestamp < endTime && !ended, \"Auction is not active.\");\r\n        _;\r\n    }\r\n\r\n    constructor(uint _auctionDuration, uint _candleDuration, string memory _productName) {\r\n        owner = msg.sender;\r\n        auctionDuration = _auctionDuration;\r\n        candleDuration = _candleDuration;\r\n        productName = _productName;\r\n        startTime = block.timestamp;\r\n        endTime = startTime + _auctionDuration;\r\n        candleEndTime = endTime - _candleDuration;\r\n    }\r\n\r\n    function registerBid(address _bidder, uint _maxBid) external onlyOwner auctionActive {\r\n        bidders.push(Bidder({\r\n            addr: _bidder,\r\n            maxBid: _maxBid\r\n        }));\r\n    }\r\n\r\n    function startAuction() external onlyOwner auctionActive {\r\n        require(!ended, \"Auction has already ended.\");\r\n        require(bidders.length > 0, \"No bidders to start auction.\");\r\n\r\n        for (uint i = 0; i < bidders.length; i++) {\r\n            if (bidders[i].maxBid > highestBid) {\r\n                if (highestBid != 0) {\r\n                    bids[highestBidder] += highestBid; // Refund the previous highest bidder\r\n                }\r\n                highestBid = bidders[i].maxBid;\r\n                highestBidder = bidders[i].addr;\r\n                emit NewHighestBid(bidders[i].addr, bidders[i].maxBid);\r\n            }\r\n        }\r\n\r\n        if (block.timestamp >= candleEndTime) {\r\n            if (random() % 2 == 0) {\r\n                endAuction();\r\n            }\r\n        }\r\n    }\r\n\r\n    function withdraw() external {\r\n        uint amount = bids[msg.sender];\r\n        require(amount > 0, \"No funds to withdraw.\");\r\n        bids[msg.sender] = 0;\r\n\r\n        payable(msg.sender).transfer(amount);\r\n    }\r\n\r\n    function endAuction() public onlyOwner {\r\n        require(!ended, \"Auction has already ended.\");\r\n        ended = true;\r\n\r\n        emit AuctionEnded(highestBidder, highestBid);\r\n\r\n        payable(owner).transfer(highestBid);\r\n    }\r\n\r\n    function restartAuction(uint _auctionDuration, uint _candleDuration, string memory _productName) public onlyOwner {\r\n        require(ended, \"Auction must end before restarting.\");\r\n        auctionDuration = _auctionDuration;\r\n        candleDuration = _candleDuration;\r\n        productName = _productName;\r\n        startTime = block.timestamp;\r\n        endTime = startTime + _auctionDuration;\r\n        candleEndTime = endTime - _candleDuration;\r\n        ended = false;\r\n        highestBid = 0;\r\n        highestBidder = address(0);\r\n        delete bidders; // Reset bidders\r\n    }\r\n\r\n    function setProductName(string memory _productName) public onlyOwner {\r\n        productName = _productName;\r\n    }\r\n\r\n    function getHighestBid() external view returns (uint) {\r\n        return highestBid;\r\n    }\r\n\r\n    function getHighestBidder() external view returns (address) {\r\n        return highestBidder;\r\n    }\r\n\r\n    function getWinner() external view returns (address) {\r\n        require(ended, \"Auction has not ended yet.\");\r\n        return highestBidder;\r\n    }\r\n\r\n    function getAuctionStatus() external view returns (bool) {\r\n        return block.timestamp < endTime && !ended;\r\n    }\r\n\r\n    function getAuctionDetails() external view returns (string memory, uint, uint, uint, uint, bool) {\r\n        return (\r\n            productName,\r\n            auctionDuration,\r\n            candleDuration,\r\n            startTime,\r\n            endTime,\r\n            ended\r\n        );\r\n    }\r\n\r\n    function random() private view returns (uint) {\r\n        return uint(keccak256(abi.encodePacked(block.prevrandao, block.timestamp)));\r\n    }\r\n}\r\n",
  "sourcePath": "S:\\CandleAuction\\contracts\\CandleAuction.sol",
  "compiler": {
    "name": "solc",
    "version": "0.8.19+commit.7dd6d404.Emscripten.clang"
  },
  "schemaVersion": "3.4.16",
  "updatedAt": "2024-07-25T14:27:04.817Z",
  "networkType": "ethereum",
  "devdoc": {
    "kind": "dev",
    "methods": {},
    "version": 1
  },
  "userdoc": {
    "kind": "user",
    "methods": {},
    "version": 1
  }
}